:20000000E83F0020E598000001CA011001CA011001CA011001CA011001CA011001CA0110F4
:1C00200001CA011001CA011001CA011001CA011001CA011001CA01103FCA011082
:20003C0000008001100082FFFDFF58003AFFBFF3FFFFFFFFFFFFFFFFFFFFFFFFFFFFFFFF63
:20005C00FFFFFFFFFFFFFFFFFFFFFFFFFFFFFFFFC50BFEC5FFFFFFFFC5FFFFFFC5C5C5FFF5
:18007C00C5C5C5FF00000000FFFFFFFFFFFFFFFFFFFFFFFFFFFFFFFF2E
:200100003C000000000000000000000034010000000000000000000001000000000000006D
:1C01200000000000000000000000000001000000000000000800000000000000BA
:20013C00340000000000000000000000680100000000000000000000010000000000000005
:14015C00010000000000000000000000080000000000000086
:2001700030000000000000000000000098010000040000000000000001000000FFFFFFFFA5
:10019000FF00000001000000080000000000000057
:2001A0002C0000000000000000000000C4010000040000000000000001000000FFFFFFFF4D
:0C01C000FFFFFFFF08000000000000002F
:2001CC0034050000E401000099A1011095A70110A5C2011009B2011045B80110000000000B
:0801EC00000000002E000000DD
:2001F400280000000000000000000000140200000000000000000000FFFFFFFF00000000B1
:080214000800000000000000DA
:20021C00300500003002000069C201106DC101101FC2011095BA011000000000000000008E
:04023C00300000008E
:20024000300500005402000075C20110A9B601109DBF011049B601100000000000000000DE
:040260003100000069
:200264002400000000000000000000008002000000000000000000000000000008000000CC
:040284000000000076
:20028800240000000000000000000000A40200000000000000000000000000000800000084
:0402A8000000000052
:2002AC00240000000000000000000000C8020000000000000100000000000000080000003B
:0402CC00000000002E
:2002D00000000000801C00200400000000000000000000002000000070010000300000008D
:2002F0001C020000941C00200400000000000000000000000C0000003004000018000000A4
:2003100040020000A01C002004000000000000000000000024000000480400001800000023
:2003300000000000A81C002004000000000000000000000010000000A00100002C000000E8
:20035000CC010000B01C002004000000000000000000000020000000640200002400000026
:20037000FFFFFFFFD01C00200400000000000000000000002800000088020000240000008B
:20039000FFFFFFFFE01C0020040000000000000000000000580000003C0100003400000068
:2003B000FFFFFFFFE81C00200400000000000000000000001000000060040000180000007D
:2003D000FFFFFFFFF01C00200400000000000000000000001C000000AC02000024000000F3
:2003F000FFFFFFFFF81C002004000000000000000000000038000000F40100002800000064
:20041000FFFFFFFF001D002004000000000000000000000054000000000100003C000000FE
:1804300018000000000000000000000040040000080000000000000050
:1804480018000000000000000000000058040000080000000000000020
:18046000180000000000000000000000700400000800000000000000F0
:0804780001000000F4DA0000AD
:040484000100000073
:0404880000000C0064
:04048C0000000D005F
:040490003200000036
:040494000200000062
:040498009C21002083
:04049C00000200005A
:0404A0000000000058
:0404A40001CA011078
:0404A8000000000050
:0404AC00000000004C
:0404B0000800000040
:0404B4000000200024
:0404B80030210020CF
:0404BC00010000003B
:0404C000B81C002044
:0404C400080000002C
:0404C8000000000030
:0404CC00000000002C
:0404D0000000000028
:0404D4000000000024
:0404D8000000000020
:0404DC00010000001B
:0404E000FC210020DB
:0404E400060000000E
:0404E800010000000F
:0404EC00502000207C
:0404F0000000000008
:0404F4000000000004
:0404F80000020000FE
:0404FC0000000000FC
:020502002A00CD
:020504000100F4
:020506002500CE
:020508003000C1
:02050A003100BE
:02050C002E00BF
:02050E000100EA
:0105100001E9
:0805140003000000A4DA00005E
:08051C000000000000000000D7
:0405240000000100D2
:0405280000000300CC
:04052C0087C401106F
:04053000380500008A
:040534003805000086
:0405380000000000BF
:04053C00800000003B
:040540008000000037
:0405440000000000B3
:04054800B81C0020BB
:04054C003DC90000A5
:040550002000000087
:04055400C4D9000006
:04055800E4D70000E4
:04055C000DC30110BA
:0405600033710000F3
:04056400DB74000044
:0405680099C801101D
:04056C009BC8011017
:040570000000000087
:04057400D3DA0000D6
:0405780060D500004A
:04057C0078D500002E
:0405800048D500005A
:0205840008006D
:0205860009006A
:02058800010070
:02058A0000006F
:01058C00016D
:040590000000000067
:040594000000000063
:04059800000000005F
:04059C00000000005B
:0405A00071C5000021
:0405A400B99E0000FC
:0405A80091B8000006
:0405AC00B199000001
:0405B0008D82000038
:0405B4008DA5000011
:0405B800A96900002D
:0405BC0029BF000053
:0405C0001985000099
:0405C40011C8011049
:0405C80021C8011035
:0405CC000800000023
:0405D0002400000003
:0405D400180000000B
:0405D80028000000F7
:0405DC0020000000FB
:0405E0003C000000DB
:0405E4000C00000007
:0405E80034000000DB
:2005EC002DE9F84F054640F29421012441F22D00C4F22231C4F2090040F81D4C086810B939
:20060C0008680028FAD046F2000043F6B477C021C4F20C00C5F2000701603E6857F8040C09
:20062C0046F25622C4F20802800806D257F8080C000C40F0F000107001E07220107041F2A9
:20064C00B820C5F200000068C0F304600CF067FA39680B171B185B1C13F10A0FB8BF6FF0C3
:20066C0009034FF0000CF10EB00E03F01F0381F00101C4F2203C80F0010043F4F85301F0DC
:20068C000101138300F00100CCF800103146CCF80800284603F002FD81460CF0E3FA00218D
:2006AC00002808BF211C48F20008C4F20C08D8F8000018B9D8F800000028F8D04AF2080A47
:2006CC00C4F20C0ACAF81090C8F8004009B10CF0CFFA28460BF0BEFA40F2FF32002380B288
:2006EC002C2100904AF20000C4F20C0007F03CFF28460BF01FFE81460CF0B4FA00210028A1
:20070C0008BF211CD8F8000018B9D8F800000028F8D0CAF81490C8F8004009B10CF0A8FAAA
:20072C0028460AF083FF81460CF09CFA0021002808BF211CD8F8000018B9D8F80000002884
:20074C00F8D0CAF80C90C8F8004009B10CF090FA28460BF0F9F981460CF084FA0021002842
:20076C0008BF211CD8F8000018B9D8F800000028F8D0CAF80890C8F8004009B10CF078FA86
:20078C00284606F0D5F981460CF06CFA0021002808BF211CD8F8000018B9D8F8000000280C
:2007AC00F8D0CAF80490C8F8004009B10CF060FA28460BF08FFD4AF24009C4F20C0940007A
:2007CC0040F0200089F8090128460BF08FFD40F0100089F8090128460BF04CFA83460CF0FE
:2007EC0041FA0021002808BF211CD8F8000018B9D8F800000028F8D0CAF820B0C8F8004072
:20080C0009B10CF035FA28460BF07CFD400040F0600089F80C0128460BF080FDC00040F0D1
:20082C00800089F8010128460BF090FD800040F47C40A9F89C0128460AF050FB83460CF08D
:20084C0011FA0021002808BF211CD8F8000018B9D8F800000028F8D0CAF800B0C8F8004061
:20086C0009B10CF005FA442089F8C5004FF0880E89F8C7E028460BF08DFE40F03001C6F302
:20088C00815089F8C81078B3401E06D0401E26D00420022108F0A3F930E020460BF02EF8FD
:2008AC0005460420294608F09AF904200BF026F88542FAD157F80C5C25F07F400AF0A2F8D5
:2008CC0040F2B410C1F200000068036807214FF06022280E98474FF48060C9F8000004208A
:2008EC00032108F07CF909E00420214608F077F943F2BD70C0F286000AF084F841F2B82064
:20090C00C5F20000D0F8B4004BF2700242F22C0E46F2000B47F618014FF0000C41F22D0A2D
:20092C00C4F20C02C4F2090E40F2944800F03F0089F8CB0FC4F20C0B1180DEF80000CBF88B
:20094C0000C0C4F2090A4AF81DCCC4F26028C8F80040BDE8F88F70472DE9F84FC64DC74E31
:20096C00D5F8EF1FCC4C7368D5F8F30F8843C5F8F30F002BC5F8FF1F00F011817788012B91
:20098C0000F0D680DFF8FCB2BF4FDFF800A3DFF80093DFF80083022B72D0032B40F06A817C
:2009AC000024B06855F8312C74600028A2F5C062B8BF404211460029B8BF494288422EDA43
:2009CC00111C54BF02206FF00100B26900EB4100032190FBF1F18918B161F36870699842B0
:2009EC000BD0B1F11002B8BF524230691038B8BF40428242B8BF88B209DB98B20090A0485C
:200A0C0030214FF47F42082307F0AEFD308A00909B4804214FF4F802122307F0A5FD5846AD
:200A2C00046001688908FCD20460012644600E203E6004F0C9F950460468EFF3118584F3DC
:200A4C00118849460820B0FA80F00A1AD07F431E0128D37704D14246106820F0080010607C
:200A6C0085F31188EFF3118384F311880420B0FA80F0091AC87F421E0128CA7754D14EE00E
:200A8C0055F8310CB0F5C06F17D00327776002F017FF45F8397C0027276020688008FCD27E
:200AAC007748394660220523009107F05DFD0126266020688008FCD364E000217160584600
:200ACC00016002689208FCD20160012641600E203E6004F079F950460468EFF3118584F38B
:200AEC00118849460820B0FA80F00A1AD07F431E0128D37704D14246106820F008001060DC
:200B0C0085F31188EFF3118384F311880420B0FA80F0091AC87F421E0128CA7704D1424663
:200B2C00106820F00400106083F31188BDE8F88F55F8312C02214BF2F52071605043000AE5
:200B4C0037B95649096821F07F414018400801E0002171806060000CA0600126E6600327C2
:200B6C0045F8397C0027276020688008FCD24448394660220523009107F0F6FC26602068AE
:200B8C008008FCD345F8216C45F8397C0820C5F8FF0FC5F8F30F45F8396CBDE8F88F4048EE
:200BAC000068006801462020884741F61D574FF002080F2045F82D0C00214FF4C0720723AA
:200BCC0045F8297C2E48CDF8008007F0CDFC012744F8047C54F8040C8008FBD3308845F821
:200BEC001D7C012821D0032045F8390C4FF00009C4F8009020688008FCD2214849466022A5
:200C0C000523009107F0B0FC276020688008FCD345F8217C45F8399C0820C5F8FF0FC5F86A
:200C2C00F30F45F8397C474623E04FF00009C4F80C90032045F8390CC4F800902068800883
:200C4C00FCD20F48CDF8008049466022052307F08BFC276020688008FCD3202045F8210C57
:200C6C0045F8399C0824C5F8FF4FC5F8F34F45F8397C7760BDE8F88F39400C4078220020AC
:200C8C0000A00C4034600C4004800C40ECDA0000671C0020701E002038600C401020094038
:200CAC00A00100102DE9F04F5FEA0009ADF11C0D00F05581AC480068EFF3118280F3118866
:200CCC00DFF8C8B29BF80400012818BF012003D1022100208BF8041082F31188012800F02A
:200CEC003C810CF0A9F90390A948046804EB0B000CF09EF94FF00008464637460BEB0401C5
:200D0C00CDF810800191B0B90C4608460CF08CF90546A868400808D3E8682969024601208D
:200D2C009047C0B2002840F0108128460CF078F90546AC42EDD1002F40F00B810CF06CF957
:200D4C00029005978948076001200AF0D7FD012804D1404609F06AF84FF00108844F386898
:200D6C008068014630468847864819300090D0F8FF0FB9F1000F00F08C80864C0A34E57953
:200D8C0005B10126A5790DB146F0020665790DB146F00406DFF8DC9165782DB1B86A006BE8
:200DAC0049460246C88D904725782DB1B86A006B49460246488D90476F4901200860B86A36
:200DCC008069014646F0200088476C4DDBF80010286840F001002860480813D268480BF0ED
:200DEC0097FE8246BAF1040FF8D0D5F8180220F00300C5F81802B86C406802466048032153
:200E0C00904701E001200490059801F05FF9B86A0099806BD1F8FF1F8047049858B9B86C4E
:200E2C0040680246564851469047D5F8180240F00300C5F8180238688068014601208847FA
:200E4C00504801688909FCD3B8F1010F02D1012008F0ECFFB86A4069014630468847B86A1B
:200E6C00406B0146304688470128F8D166782EB1B86AC06A49460246C88D904726782EB1B4
:200E8C00B86AC06A49460246488D90473A49012008603A480168032221F00101016001984E
:200EAC008BF804200CF0C4F80028059818BF01200125C0B9019C20460CF0B6F80646B0685A
:200ECC00C00806D3F0683169024604209047C0B230B930460CF0A4F80646B442EFD102E0E3
:200EEC002948006880472148009F0560D7F8FF0F0BF0BEFE01980CF09BF8059FC8B9019C5B
:200F0C0020460CF091F80646B068000906D3F0683169024608209047C0B230B930460CF08E
:200F2C007FF80646B442EFD103E0174800688047022702988BF804500CF06AF807F01EF8B6
:200F4C0003980CF061F838460AE00F4800688047022701208BF80400F2E7062000E00220D5
:200F6C0007B0BDE8F08FC046ECDA00000C40094090010010FCD40000282008600C20084094
:200F8C000040034014100940E0DA0000701E0020DCDA0000541C00202DE9F84F0146944C23
:200FAC009548944D0E7BE3886778321C00F09780521E7ED0921E67D0521E34D0613A6FD04C
:200FCC0026F00F02102A40F0098116F0030F0CBF00220122E270097B11F00C0F0AD10827C6
:200FEC00E06815F8012B4FF4E0210AF0B9F97F1EF6D1F3E0E1780026074641F00201E170EC
:20100C00E0887100084100F00300012807D1A95DE06847EA01024FF4E0210AF0A1F9761CC2
:20102C00082EEDDBDAE07800034103F00303032B40F0D480082F80F2D1800A7C487BCB7BFC
:20104C004D7C00EB02668A7B06EB034616EB022605D104EB8700406C0BF0A0FEBEE004EBE2
:20106C008700406C31460BF08FFE6078634904EB8000406C69430BF082FE607804EB800025
:20108C00406C0BF086FEA9E0487BFF2803D00020A070487B02E00120A070002060709DE060
:2010AC008A7B487B00EB0220410001EBC001218194E0487BE76800262070E0887100084161
:2010CC0010F0030F07D12278A95D3846324102F0010209F063FC761C082EEEDB7EE08A7B48
:2010EC00497B9A460027AB462E4601EB0221E18081EA0A01009100997800014111F0030FD7
:20110C0069D0E5884AFA00F303F00309B9F1030F45FA00F505F003080CD104EB8705686CCB
:20112C000BF03CFE686C0BF025FEE0681BF8071006F0F8FDE068B9F1010F08D1E17889085A
:20114C0005D3F25D4FF4E0210AF00AF9E068B8F1000F0AD1072F1CBFF15D294A02D1294A28
:20116C00F17952020A43274933E0B8F1010F1FD0B8F1020F17D0B8F1030F2CD1224DED195F
:20118C00A97907F00FFFAB7904EB870000F144080B2B04BF012084F83C0038460AF06AFE93
:2011AC00C8F8000017E05946CA5D42F02042DAE7154D164AED19A9790A4312490AF0D0F8FD
:2011CC00E078800807D3A9790B4AE0680A434FF4E0210AF0C5F87F1C082F8CDBE178207917
:2011EC00490834BF0021218906F0BAFFBDE8F88F4C1F0020FAD6000000000780285C8F0202
:20120C00000080800060C020F4D60000002000802DE9F04F002817460E46ADF1140D75D0E6
:20122C00002E73D0002F71D000885D4C002800F0B1800AF04FFE0D46804601953088CDF8D4
:20124C0000800AF047FE039102902B46424601F043FF54A20CCA05F0E5FB35D953A20CCAF7
:20126C0005F0E0FB2DD953A20CCA05F0DBFB25D952A20CCA05F0D6FB1DD952A20CCA05F0B3
:20128C00D1FB15D951A20CCA05F0CCFB0DD951A20CCA05F0C7FB05D950A090E80003CB4643
:2012AC00C24617E04FA151A010E052A153A00DE054A156A00AE057A158A007E059A15BA0DE
:2012CC0004E05CA15DA001E05EA160A091E8000390E8000C674D6E7886B95EA696E80C00DD
:2012EC004946404602F0EEFB96E80C00894680465946504602F0E6FB8B4682462E78EEB1ED
:20130C00012E18D0032E2AD1688808B9002043E00AF0E0FD02460B4650A003C801F0DCFE94
:20132C000D460646494640462B46324602F0CAFB2B4632460BE04BA2154601E04BA52A46F0
:20134C000CCA4946404602F0BDFB95E80C00894680465946504602F0B5FB8B4682460199C4
:20136C0000984B46424602F0ADFB0D460646039902985B46524602F0A5FB0B46024629466E
:20138C00304600F086FF08F04BF92146386006F017FF00D23C60012005B0BDE8F08FC046A1
:2013AC0000000000000000000000C03F000000000000D03F000000000000D83F00000000FC
:2013CC000000E03F85EB51B81E85E33F9A9999999999E93FCDCCCCCCCCCCF43F00000000E9
:2013EC0000000000FA7E6ABC7493583F2F6EA301BC05523F2D431CEBE2368A3F4BC8073D63
:20140C009B558F3FC7BAB88D06F0963F5839B4C876BE9F3FFD87F4DBD781A33FDE718A8E5E
:20142C00E4F2AF3F0DE02D90A0F8A13F5F07CE1951DAAB3FA4703D0AD7A3A03FBA490C0293
:20144C002B87A63FC58F31772D219F3F5F07CE1951DA9B3F000000000000304000000000FF
:20146C0000287940CDCCCCCCCCCC0F4085EB51B81E453D407A2300202DE9F04F8B4688495A
:20148C00824609AF9846ADF1140DDBF804009BF800603D7903923C88029032460AF098FBB3
:2014AC004FF0FF09F8B9009403200190039A43465946504607F096FA051C40F0E280794C86
:2014CC00E16950460BF092FAA16900F0030650460BF08CFA00F0030046EA800040F010009C
:2014EC005FFA80F9CDE0704F02983246A7F140010AF06EFB20BB022C80F2C08008EB04069C
:20150C00022E00F3B980022E05DA182D00F0B480122D00F0B18003980AF085FE051C40F022
:20152C00B080DBF80C0003994246201804F08EFC022EC0F2A6805B484FF00009001D4CE07A
:20154C000298A7F1300132460AF042FB08BB002C40F0948008EB0406022E80F28D802EB9A7
:20156C00182D00F08980122D00F086800BF0B3FC051C40F08680DBF80C00039942462018B0
:20158C0004F064FC002E7CD046484FF00109801D23E00298A7F1100132460AF019FBF0B988
:2015AC00002C6BD108EB0406022E65DA1EB9182D62D0122D60D003980BF0B1F9051C60D1FC
:2015CC00DBF80C0003994246201804F03FFC002E57D034484FF003090C30068054E00298E9
:2015EC00324639460AF0F4FAF8B9052C46DA08EB0407062F40DA052F03DA182D3CD0122D10
:20160C003AD00398414608F09DFD051C39D1DBF80C0003994246201804F018FC052F30DB53
:20162C0020484FF004090E3024E002981F4932460AF0CEFA20BB022C20DA08EB0407022F3A
:20164C001ADC022F03DA182D16D0122D14D0039841460AF0A0FC051C13D1DBF80C000399F4
:20166C004246201804F0F2FB022F0ADB0D484FF0650912303E46B0E70D2502E0072500E028
:20168C000A25B9F1FF0F07D006481430006818B1016809B148468847284605B0BDE8F08FF6
:2016AC0096D7000084130020D8D30000C8D800002DE9F0410446DFF81C82A2780026101C3D
:2016CC0000F0D780801E00F0B180401E012840F28780801E52D0401E26D0401E03D00838B3
:2016EC0000F0EA80EBE0454605F1F0000BF0EFFB6078002840F0E380E08828842089688427
:20170C006089A88405F1CC000BF0B0F9002840F0D6806B6B002B00F0D2801B68288C698C25
:20172C00AA8C9847BDE8F081A0880AF033F945463146062205F1440005F0BCFC2E846E846F
:20174C00AE84A079687305F1CC000BF0C0FB05F1F0000BF0BCFB01264FF6FF702F79E8825A
:20176C004FB9A079082814BF04200520687030460AF0B8FEA3E003206870A0E0454667788A
:20178C00EA7A2FBB211D0B6805F1440003608988818006276F706089E882E0892884208A71
:2017AC006884608AA884E078012A28730AD11F2008F0D8FB4FF47A71024605F1CC0051434C
:2017CC0008F0FEFDE0786289211D08F051FD78E06078312818BF08201CD1EE70042019E053
:2017EC006778002F63D14546A98A6878032A13D0EA782F7921B9012A14BF2E71EE7006E028
:20180C00174304D005F1A80008F0DAFD68780728E4D10620687054E0062805D0E8780028A0
:20182C000CBF03200220F5E70720F3E76078651C00283CD14046E77881798FB94178022916
:20184C0014D0072912D0062902D1017901290DD1A8300BF00BF948B901200AF043FE05E0E9
:20186C0000F18902304607F085FA28702878F0B925E06078D8B945460220102105F14A0285
:20188C0009F0F4F80320102105F15A0209F0EEF8E41C05F13800A7882168878005F16A0283
:2018AC00016001206979687007F064FA48B1454608206D1C287004E0A0880BF08FF9012E00
:2018CC0006D14546286B18B1016809B168788847BDE8F081100E0020F8B5A0F20135174646
:2018EC000E46022D40F205818249834A2D1F0F2D04D9143D4AD0AD1E1CD011E0DFE815F0C5
:20190C00B500B000E600D600A900A200F9009A009300100010008C00820077006D006000B7
:20192C00272880F2E680022E40F0E380398808F017FFF8BD012E40F0DC800A4690780128F1
:20194C0000F0D780D1783878D07081B9002800F0D0801078012800F09B80042800F0988069
:20196C00062800F09580052800F09280F8BD3878002840F0BE801078032800F09480072818
:20198C0000F09180052800F08E80F8BD012E40F0B0803878012840F0AC80154605F1F00055
:2019AC000BF064F8002840F0A480002005F090FD002840F09E802846CC300BF088FAF8BD94
:2019CC00022E40F0968038880A28C0F29280B0F5486F00F38E801D3112E0022E40F08980C9
:2019EC003888B0F5FA7F80F284801B3108E0022E7FD1388806287CDBB0F5486F79DC193193
:201A0C000880F8BD022E74D13888062871DBB0F5486F6EDC1731F3E7012E6AD138780228C2
:201A2C0067DA0A310CE0012E63D13878042860DA093105E0012E5CD13878082859DA0831F2
:201A4C000870F8BD012E54D13878042851DAC91DF6E7012E4DD1387804284ADC891DEFE764
:201A6C00022E46D138881331CAE7012E41D10A46D07801283DD091783878907061B9002854
:201A8C0037D01078012803D0042818BF052830D101200AF027FDF8BD387850BB107802281D
:201AAC0018BF052825D10AF099FFF8BD154605F1890400211F22204605F0FCFA3946324651
:201ACC00204604F0C3F90020AE710EE0154605F16A0400211F22204605F0ECFA394632465E
:201AEC00204604F0B3F901206E713146224607F041F9F8BD110E0020100E00202DE9F04349
:201B0C00ADF11C0D06F044F87C4D7D4E05F1340006F1700104F086FCDFF8E891A86049463D
:201B2C000BF09DF90BF017F809F0D0FD05F14C000AF0FCFF05F140040021686120460BF07C
:201B4C005FFA2C61704C4FF47A72042305F16400214607F0D5FC0A22102305F188002146B4
:201B6C0007F0CEFC1F20012108F0FAFD08270020ADF8020001248DF804004FF44871ADF803
:201B8C00081080468DF800406A46ADF806706420ADF80A802146ADF80C0040F20530FFF7A3
:201BAC009BFE40F2063002210DF10202FFF794FE06F154024FF442701B21FFF78DFE06F175
:201BCC002A0240F207301521FFF786FE4FF44470214601AAFFF780FE40F2113002210DF1A3
:201BEC000602FFF779FE40F21230022102AAFFF773FE40F2133002210DF10A02FFF76CFEB8
:201C0C004FF44570022103AAFFF766FE0AF0F2FF0AF0DCFE06204FF4C86108F0A1FD072088
:201C2C004FF4C86108F09CFD38464FF4C86108F097FD09204FF4C86108F092FDCDF81080B4
:201C4C008DF814408DF8158003208DF81740042104AA8DF816004FF4816008F067FD4FF455
:201C6C008060214605AA08F061FD40F2024021460DF1150208F05AFD40F2034021460DF1F3
:201C8C00160208F053FD40F2064021460DF1170208F04CFD0BF050F80BF011F90AF004FD5E
:201CAC000AF0D4FD07F0DCFA0AF08BFF06F048FB07F09CFF04F0EAFD07F038FF07F0D6FE5D
:201CCC0007F054FF07F0B2FF04F09BFD0AF0D6FF08F04CF80AF060FD05F158000AF026FFAB
:201CEC00A8610AF08BF909F0C5F9A86849460BF0B6F84046687007B0BDE8F08320050020E0
:201D0C000CD2000031C8000045C800002DE9F0411C4615468C4208BF854282BF00230022ED
:201D2C00E5E0002C08BF002D0AD100290EBF00286FF000006FF0000100F0E1F8BDE8F0811B
:201D4C005FF000085FF0000E002C08BF8D429CBF2C1C0025070C47EA01470E0CB44208BFD6
:201D6C00BD429EBF5FEA044444EA15445FEA0545070A47EA01670E0AB44208BFBD429EBF75
:201D8C005FEA042444EA15645FEA0525470847EAC1774E08B44208BFBD4200F2938087084E
:201DAC0047EA81778E08B44208BFBD427CD8C70847EA4177CE08B44208BFBD4266D80709B0
:201DCC0047EA01770E09B44208BFBD4250D8470947EAC1674E09B44208BFBD423AD88709F5
:201DEC0047EA81678E09B44208BFBD4224D8C70947EA4167CE09B44208BFBD420DD8E60167
:201E0C0046EA5566EF01B14208BFB84201D3C01BB14158EB08085EEB0E0EA60146EA9566FC
:201E2C004FEA8517B14208BFB84201D3C01BB14158EB08084EEB0E0E660146EAD5666F0182
:201E4C00B14208BFB84201D3C01BB14158EB08084EEB0E0E260146EA15762F01B14208BFAD
:201E6C00B84201D3C01BB14158EB08085EEB0E0EE60046EA5576EF00B14208BFB84201D3AB
:201E8C00C01BB14158EB08084EEB0E0EA60046EA9576AF00B14208BFB84201D3C01BB141DC
:201EAC0058EB08084EEB0E0E660046EAD5766F00B14208BFB84201D3C01BB14158EB080876
:201ECC005EEB0E0EA14208BFA84201D3401BA14158EB08085EEB0E0EA34208BFAA423EBF9F
:201EEC002D0A45EA0465240A89D3734642461E4617460B46024631463846BDE8F081704720
:201F0C002DE9F04FADF1140DFFF7F8FD6E4C41F279384746002645F6602B42F6635A42F672
:201F2C004619FF3F04F16400039004F1880002900AF09CF8002866D101960DF102006946CA
:201F4C0001AA08F0E2FFD0B9BDF80200102807D1A088BDF80010884202D101980AF0A0FEE6
:201F6C00019860B10AF076FA09E0606909F0A2FF051C04D00AF0B2F828460AF02FFA606902
:201F8C000BF056F80028F0D036E020690BF034F805462889B0EB0B0028D0B0EB0A0021D00E
:201FAC00B0F5A5601AD0B0EB080013D0A0F6E11060B1C01B06D0B0EB09001AD1284604F0C1
:201FCC00C1FA16E0284603F013FD12E0284603F0B7FA0EE02846FEF7DFFF0AE0284603F055
:201FEC0061FC06E0284603F07FFF02E0284603F03DF928460AF0F2F920690BF019F800282A
:20200C00C3D001F05BFEE088C1080BD320F00400E0802178062918BF022903D103980AF021
:20202C0054FFE088410924D320F010003546E08004EB8500D0F8AC308BB11A880A2A0BDC8C
:20204C006AB15A685AB1D0F8AC001E80406880476078401E607002E018880A3818806D1C20
:20206C00EDB2092DE4DB657815B102980AF02DFFE088410B05D320F48050E0800AF0D7FEBE
:20208C00E088810B04D320F40050E0800AF0F2F8A0690AF0CDFF00287FF44AAFA0690AF05B
:2020AC00ABFF0546287A012806D0022808D16889E96804F07FFF03E06889E96806F020F894
:2020CC0028460AF08BF9E3E720050020F8B507460020C4F209000068800880F0C98008F07F
:2020EC0087FF42F22421C4F208010A68002112F0030F18BF0121D20828BF41F00201002F52
:20210C0018BF41F0040143F6A856C2F2000696F90720821A052A04DAB2798A4208BFB2885E
:20212C0070D041F29C340F28A0F10F02C5F2000425DB02EB02121712072F88BF0727BC46E5
:20214C00BCF1060F88BF4FF0060C54F82CE00423254603EB8C03EB58CD08A3EB0E0303F008
:20216C00FF0C24BFC3F30725AC448D0824BFC3F30745AC444D0805D30CEB136C02E04FF065
:20218C00000C674654F82730CC0803F0FF0524BFC3F3072425448C0824BFC3F307442544FE
:2021AC004C0828BF05EB1365A2EB07221FFA8CF3534380330022082B88BF012243F6B473BA
:2021CC00C5F200031C681B684FF4D07C34275219241703F0FF0307FB14C45C434FF6FF737D
:2021EC00B4FBF2F2934238BF1A1C802892B2B28005DA10F1800F03DA6FF07F0000E07F2077
:20220C00F071B17142F20800C4F2090001681F2A4FF00000316015D340F2FF13934213D2CC
:20222C0019465208401C93420ED25208401C93420AD25208401C914206D25208401C914277
:20224C00EFD301E01F22B2800F3A4FF600714FF0350E1209C8F2A401C4F2090E40EAC200A8
:20226C000143CEF8FB1F4FF0000CCEF8FFCFF8BD43F6AE524FF6FD50082141F2300EC2F281
:20228C000002C0F2A4001170C4F2090ECEF80000F8BD2DE9FC4F83F0004301E02DE9FC4FB8
:2022AC001F03FF0847EAD2574FEA42284FEA43095FEA595906D147EA080A1CBF0021002036
:2022CC00BDE8FC8F57F000575FF4E06E1EF1FF0EF14505D14FF00000190D0905BDE8FC8FB8
:2022EC00002B05D55FF0000AD8F100086AEB07070C03E40844EAD0544FEA40254FEA4106D5
:20230C00760D08D144EA050A19BF00210020191C101CBDE8FC8F44F00054764504D1002036
:20232C00090D0905BDE8FC8F002904D55FF0000A6D426AEB0404B6EB090E08D5A2463C46D7
:20234C005746AA464546D046CEF1000E4E46BEF1360F5CBF4FF0000B23E0BEF1000F04BF05
:20236C004FF0000B1AE0CEF1390ABAF120092EBF08FA09FB07FA0AFB4BEA080BDEF1200AFD
:20238C0007FA0AFA38BFBA4647FA0EF72DBF28FA0EF8AEF1200E4AFA0EF8D04415EB0805A3
:2023AC007C4154EA050A02BF00210020BDE8FC8F002C58BF4FF0000A06D55FF0010A5FF0C5
:2023CC00000E6D426EEB0404A6F101066D006441FAD515F4806E11D005F480794BEA090B41
:2023EC0015F5806554F1000428BF761C0BD205F400795BEA090B08BF25F4006525F4E065D5
:20240C006D0044EB0404B61CDEBF00210020BDE8FC8F5FF4E06E1EF1FF0E76450AD34FF098
:20242C00000013F00043FF21C900C91D09051943BDE8FC8F270547EA1530210B41EA065191
:20244C0041EACA71BDE8FC8F2DE9F04F89465D49824609AF1646ADF1140DD9F804003D79EA
:20246C003C88039399F8007002903A4609F0B0FBDFF854B14FF0FF08F8B900940320019024
:20248C00039B49463246504606F0ACFA051C40F089805C46A16950460AF0A8FAE16900F0E7
:2024AC00030650460AF0A2FA00F0030046EA800040F010005FFA80F874E0464902983A462A
:2024CC00103109F085FBF0B9002C68D1039F3F19022F62DA1FB9182D5FD0122D5DD0304693
:2024EC0009F040FF051C5DD1D9F80C00039A3146201803F0ABFC002F54D05C464FF06408E6
:20250C000A34278051E0314902983A4609F060FBE8B9002C43D1039F3F19022F3DDA1FB9B6
:20252C00182D3AD0122D38D030460AF03EF8051C38D1D9F80C00039A3146201803F086FC8B
:20254C00002F2FD05C464FF003080C34D9E7204902983A4609F03CFB18BB022C1FDA039F06
:20256C003F19022F19DC022F03DA182D15D0122D13D00399304609F00EFD051C12D1D9F88C
:20258C000C00039A3146201803F060FC022F09DB5C464FF065081034B3E70D2502E0072507
:2025AC0000E00A25B8F1FF0F07D05C461434206818B1016809B140468847284605B0BDE8F7
:2025CC00F08FC04696D7000004150020C4D50000C8D80000C8D800002DE9F04FADF15C0D8F
:2025EC0008F070F80027012804D109F05BFE022808BF012751490868C0F38150012806D151
:20260C0051F80C0C0126010E06FA01F007434C484C4E00783068C0F3460608F053F8012833
:20262C0008BF761C484C26603EB1FF2204F140013046401E01F8012BFBD1DFF81091D9F8C7
:20264C0000004FF0000800F0FF01FF2918D04D4600F0FF03414601229E426CD902FA03F3E1
:20266C001F4268D100F0FF00201880F8401055F8040F43EA0808491C00F0FF03FF2BEBD1EB
:20268C00092002F0F7F9C4F8049001A80021242208230AF0ADFC4FF0010A04F1240001AAE7
:2026AC008DF81CA051460AF09FFC236833B300262546B34660350AFA06F0074218D118EAE3
:2026CC00000F04BF06F0FF0141F4C04104D0A01990F8400059F820101D4802F023FEF0B200
:2026EC004FF0FF3109F0ECFC2368C5F800B001E004202860761C2D1D9E42DCD30AA80021BB
:20270C00302208230AF06CFC002010210AAB114A009004F108000AF05FFC0F4951F80D0CD1
:20272C0020F4F85040F4005041F80D0C5746C1F8FF7F0A4E376017B0BDE8F08FB43F00506A
:20274C00B43D002080120840D03A00209CD20000007FC7677D9400000D3009400800094055
:20276C002DE9F04F8A465649814609AF1E46ADF1140DDAF804003D793C8803929AF8007000
:20278C0002903A4609F024FADFF838B14FF0FF08A8B9009403200190039A3346514648461A
:2027AC0006F020F9051C7BD148491031096848460AF01CF900F0030040F0100873E0444996
:2027CC0002983A46103109F003FAE0B9002C64D13719022F5FDA1FB9182D5CD0122D5AD036
:2027EC0003980AF0AAF9051C5AD1DAF80C0003993246201803F02AFB002F51D058464FF0DA
:20280C00640807804FE0304902983A4609F0E0F9E0B9002C41D13719022F3CDA1FB9182D9A
:20282C0039D0122D37D003980AF0BFF9051C37D1DAF80C0003993246201803F007FB002F79
:20284C002ED058464FF00208801CDAE7204902983A4609F0BDF910BB022C1EDA3719022F86
:20286C0019DC022F03DA182D15D0122D13D00398314609F090FB051C12D1DAF80C000399E9
:20288C003246201803F0E2FA022F09DB58464FF06508801DB5E70D2502E0072500E00A25C6
:2028AC00B8F1FF0F07D058460830006818B1016809B140468847284605B0BDE8F08FC046B2
:2028CC0096D70000641800207CD6000060180020C8D800002DE9F04F8A465649814609AF16
:2028EC001E46ADF1140DDAF804003D793C8803929AF8007002903A4609F06AF9DFF838B194
:20290C004FF0FF08A8B9009403200190039A33465146484606F066F8051C7BD148491031EE
:20292C00096848460AF062F800F0030040F0100873E0444902983A46103109F049F9E0B9EE
:20294C00002C64D13719022F5FDA1FB9182D5CD0122D5AD003980AF0F0F8051C5AD1DAF803
:20296C000C0003993246201803F070FA002F51D058464FF0640807804FE0304902983A46B4
:20298C0009F026F9E0B9002C41D13719022F3CDA1FB9182D39D0122D37D003980AF00BF9A0
:2029AC00051C37D1DAF80C0003993246201803F04DFA002F2ED058464FF00208801CDAE70D
:2029CC00204902983A4609F003F910BB022C1EDA3719022F19DC022F03DA182D15D0122D95
:2029EC0013D00398314609F0D6FA051C12D1DAF80C0003993246201803F028FA022F09DBB5
:202A0C0058464FF06508801DB5E70D2502E0072500E00A25B8F1FF0F07D058460A3000680A
:202A2C0018B1016809B140468847284605B0BDE8F08FC04696D70000661A0020B0D6000069
:202A4C00641A0020C8D800002DE9F04F8A465649814609AF1E46ADF1140DDAF804003D793A
:202A6C003C8803929AF8007002903A4609F0B0F8DFF838B14FF0FF08A8B90094032001908D
:202A8C00039A33465146484605F0ACFF051C7BD1484910310968484609F0A8FF00F003007E
:202AAC0040F0100873E0444902983A46103109F08FF8E0B9002C64D13719022F5FDA1FB97B
:202ACC00182D5CD0122D5AD003980AF036F8051C5AD1DAF80C0003993246201803F0B6F935
:202AEC00002F51D058464FF0640807804FE0304902983A4609F06CF8E0B9002C41D1371964
:202B0C00022F3CDA1FB9182D39D0122D37D003980AF07CF8051C37D1DAF80C0003993246D2
:202B2C00201803F093F9002F2ED058464FF00208801CDAE7204902983A4609F049F810BBD9
:202B4C00022C1EDA3719022F19DC022F03DA182D15D0122D13D00398314609F01CFA051C31
:202B6C0012D1DAF80C0003993246201803F06EF9022F09DB58464FF06508801DB5E70D2518
:202B8C0002E0072500E00A25B8F1FF0F07D058460830006818B1016809B140468847284691
:202BAC0005B0BDE8F08FC04696D70000641900204CD7000060190020C8D800002DE9F04F6F
:202BCC0088465149824609AF9946ADF1140DD8F8040098F800503C7903923E8802902A469D
:202BEC0008F0F6FFDFF828B1FF27002873D0474902982A46203908F0EBFFE8B9022E66DAB5
:202C0C0009EB0605022D60DC022D03DA182C5CD0122C5AD003980AF055F8041C65D1D8F852
:202C2C000C0003994A46301803F010F9022D5CDB5846002705805AE0344902982A46103952
:202C4C0008F0C6FFE8B9022E41DA09EB0605022D3BDC022D03DA182C37D0122C35D0039845
:202C6C000AF030F8041C40D1D8F80C0003994A46301803F0EBF8022D37DB58460127001DAB
:202C8C00D8E7029821492A4608F0A2FF08BB022E1DDA09EB0605022D17DC022D03DA182C01
:202CAC0013D0122C11D003980AF00CF8041C1CD1D8F80C0003994A46301803F0C7F8022D2F
:202CCC0013DB584602270830B4E70D240DE007240BE00A2409E0009603200190039A4B469D
:202CEC004146504605F07EFE0446FF2F07D058460A30006818B1016809B13846884720460C
:202D0C0005B0BDE8F08FC04696D7000008D60000161D0020B0B5456884684B48297BADF157
:202D2C00180D012916D0217C627C484B2F7E0143009143EA02010191454937F0010718BF6C
:202D4C00081CA27C1043029095F859000322FF2811D00DE0677C217C3843A37C019041F064
:202D6C000041009143F000403A49029095F85900014304220391FF204DF82200694605F1DE
:202D8C005C0003F04FFBA866002808BF002058D0287B314951F82000012828D02068B0F179
:202DAC00804F14BF22220A22217CA86E08F028FE2068B0F1804F14BF21220922617CA86EF8
:202DCC0008F01EFE2068B0F1804F14BF24220C22A17CA86E08F014FE95F85910FF292FD03A
:202DEC002068B0F1804F14BF23220B2225E02068B0F1804F14BF21220922217CA86E08F0A1
:202E0C00FFFD2068B0F1804F14BF22220A22617CA86E08F0F5FD2068B0F1804F14BF242281
:202E2C000C22A17CA86E08F0EBFD2068B0F1804F14BF23220B2295F85910A86E08F0E0FD27
:202E4C00012006B0B0BDC046000480A0004000800004C0A000200080C4D400002DE9F04F47
:202E6C008B464B49064609AF9846ADF1140DDBF804003C799BF8005003923F8802902A4673
:202E8C0008F0A6FEDFF80CA14FF0FF09F0B9009703200190039A43465946304605F0A2FDFC
:202EAC00041C65D15546A969304609F09FFDE96900F00307304609F099FD00F0030047EA83
:202ECC00800040F010005FFA80F951E0324E02982A4606F1100108F07BFEE8B9002F44D13B
:202EEC0008EB0706022E3EDA1EB9182C3BD0122C39D0039809F02AFD041C39D1DBF80C004D
:202F0C0003994246381802F0A1FF002E30D055464FF06409AD1D24E0029831462A4608F0E3
:202F2C0057FE20BB022F20DA08EB0706022E1ADC022E03DA182C16D0122C14D00398414689
:202F4C0009F029F8041C13D1DBF80C0003994246381802F07BFF022E0ADB55464FF065092B
:202F6C000A352E8007E00D2402E0072400E00A24B9F1FF0F07D055461435286818B10168F0
:202F8C0009B148468847204605B0BDE8F08FC04696D7000048160020C8D800002DE9F04FE9
:202FAC004B4C07466078ADF11C0D0590A0780490E078039037B1207820B900201E2104F0AA
:202FCC00A9FC08B900207FE0E07800263546012814D15B206946012209F0D9FD00286AD07B
:202FEC009DF800006946012200F0FC008DF800005B2008F01FFC00285DD0E6706378DFF802
:20300C00D480C3B94FF001092A2069468DF800904A4608F00FFC00284DD048466070A67031
:20302C0008F0A6FC4FF47A71434641431868B1FBF0F009F0CDFF4CF2503B4FF0320A40F268
:20304C00025930466946012209F0A1FD98B39DF8000030F07F000CD1D8F80000BBFBF0F068
:20306C0009F0B6FF6D1CEDB20AFB05F08145E8DC21E001200DF10101062209F088FD0646D6
:20308C009DF801109DF802009DF803509DF804309DF8052040EA012000B280109DF8061044
:2030AC00388043EA052000B28010788041EA022000B28010B88009F0FFFD2379059804992E
:2030CC00039A01F0ADFD304607B0BDE8F08FC04668230020F0DA00002DE9FC4191EA030807
:2030EC004CBF4FF000484FF000084FEA03354FEA153556006D414FEA43075FEA575711BFA9
:20310C0045F4001500210020BDE8FC814FF4E06E1EF1FF0E77456FD04FEA01334FEA13335E
:20312C0042005B414FEA4104640D11BF43F4001300210020BDE8FC8174455DD0E41B002133
:20314C0000205FF0360EAB4200D1B24205D340414941921B63EB050301E040414941BEF17D
:20316C00010E05D053EA020702D052005B41EAE7BEF1200F09D2BEF1160F0CD3CEF1200736
:20318C0020FA07F100FA0EF00FE0AEF1200E00FA0EF1002009E001FA0EF1CEF1200720FA61
:2031AC0007F741EA070100FA0EF011F4001F02D140004941641E401C51F1000111F4800F64
:2031CC001ABF641C21F4800121F400114FF44077FF37E419DEBF00210020BDE8FC8107F5A5
:2031EC008067BC4208D249084FEA300041EA045141EA0801BDE8FC810020FF214FEAC10139
:20320C00C91D4FEA015141EA0801BDE8FC8170472DE9F04304466668A5680F46ADF1540D62
:20322C0009F0D2FE96F8A4102D1D012903D109F0C7FE002076E04FF0010986F8A49009F007
:20324C00BFFE1FB90DA809F0D9FA0DAF4FF00008C6F854803869306178697061387E307677
:20326C00387B307338783070786886F87080706078694146092828BF494686F858106878A9
:20328C0001F0F8FB204605F079FAE87B86F859002046FFF73FFD50B9687801F095FD09F039
:2032AC0093FE86F8A48009F08BFE444639E001A841463022082309F093FE0694CDF8008094
:2032CC001A4A297806F11C0001AB09F085FE307878B901A841462422082309F089FE8DF823
:2032EC001C9006F13800414601AA09F07DFE104800E0B868B06005F099FAF066307B012827
:20330C0006D1B06E0B4909F0AAFDB06E00B18460094ACDF8008006F190000421234607F061
:20332C00A9FD204615B0BDE8F083C046B93E000005CE000061A00000F5CC00002DE9F04FB1
:20334C000C4646498A8BADF13C0D84460992487B0D90CE7800964A8B0892888C0C900A8B2F
:20336C00488C079291F80CE00B908E78CA7A088C0692CB8A0A908A7A91F804A005924A7AD3
:20338C00C88B04920A7A91F801800392CA798D8A02928A79CF6A01924A79E146A9F5407917
:2033AC00B9F11D0F10D8DFE809F0554F4D4B49474543403D3B393634320F312F2D2B2A248D
:2033CC00211F1D0F1A191816BCF1270F43DA604606F0C8FD13E0DDF834E0F246D046CDF8C4
:2033EC00148016E00C980B900B980A900A98054620E04431086820608888A0802BE0099095
:20340C00099808900898079007980690069B238021E0059804900498039001E03E31E9E736
:20342C00039802900298009006E0019A89310DE06A310BE02846E2E7009E0BE03831D9E792
:20344C00276008E05A3100E04A311022204602F0FDFC00E026700FB0BDE8F08F100E0020F1
:20346C00B0B5464D0746401EADF1180D4DD0424C401E2DD0401E42D0401E012839D9801E2D
:20348C0002D0801E30D074E0204609F0EFFA10B9204609F01AFD0020032106F075FF04F033
:2034AC0043FBA878012864D000208DF8000001216A4640F20530FEF70FFA012440F21B30C7
:2034CC006A468DF800402146FEF706FAAC7050E0204609F0CBFA10B9204609F0F6FC012064
:2034EC00032106F051FF44E009F0E0FB0220032103E009F0DBFB0220014606F045FF08F0CB
:20350C0010FA1F490020087033E00020012106F03BFF0120014606F037FF0220012106F042
:20352C0033FF4FF441700DF10101FFF707FF9DF801009DF805308DF809009DF806108DF83F
:20354C000F309DF802408DF810109DF804008DF80A409DF803308DF80E000DF109028DF853
:20356C000B3000208DF80D0008218DF80C0002F01FFC2F7006B0B0BD8405002020050020DB
:20358C00220500202DE9FE4F0CAF4868DFF80891BC883E8891F8008002923E4F01919B46F3
:2035AC003D8800904246A9F1400108F011FB4FF0000A28B9B54261DBAD1BA54254DC36E0F1
:2035CC007D880098A9F13001424608F001FB60B9B54253DB3B6923B1596811B101208847D2
:2035EC007D88AD1BA5423FDC21E0FD880098A9F12001424608F0ECFA60B9B5423EDB3B69E4
:20360C0023B1596811B102208847FD88AD1BA5422ADC0CE03D890098A9F11001424608F0A7
:20362C00D7FA30B9B54229DBAD1BA5421CDCACB21AE07D8900984246494608F0C9FA28B979
:20364C00B5421BDBAD1BA5420CDD0DE0FD8900981249424608F0BCFA98B9B5420EDBAD1B44
:20366C00A54201DCAAB200E02246ABF800200198C0683118029802F0E9FB07E04FF0070A62
:20368C0004E050464FF00A0AABF800005046BDE8FE8FC04688130020D8D30000C8D80000DA
:2036AC002DE9FE4F5FEA000990460F460AD04FB1B8F1000F06D00120602104F02BF90646B0
:2036CC00012E02D00020BDE8FE8F3A4DDFF8E0A0AD1E2878F0B926206946012209F057FA37
:2036EC0000285FD09DF800006946012240F002008DF80000262008F09DF8002852D009F033
:20370C002DF854464FF47A7141432068B1FBF0F009F05EFC07208DF8000069460122132014
:20372C0008F088F800283DD000244CF2503BC4F1140400206946012209F029FA90B39DF830
:20374C000000000907D2DAF80000BBFBF0F009F03FFC641EEDD101200DF10101032209F060
:20376C0016FA0646687800B94F469DF801109DF803509DF80200022240EA012045EA0021CF
:20378C0041F313100DF101013860042009F0FFF906409DF801109DF8020040EA012000113A
:2037AC00A8F8000009F088FA3046BDE8FE8FC046F0DA0000962300202DE9F04F09AFADF1E6
:2037CC00140D4868DFF8F0A091F80080BC8802923E880191374F03933D8800904246AAF1D8
:2037EC00200108F0F5F94FF0000B60B9B54255DB3B6923B1596811B1584688473D88AD1B37
:20380C00A54241DC23E0BD880098AAF11001424608F0DEF960B9B54240DB3B6923B1596851
:20382C0011B101208847BD88AD1BA5422CDC0EE0DFF88890FD880098424609F1100108F049
:20384C00C7F930B9B54229DBAD1BA5421CDCACB21AE03D8900984246514608F0B9F928B9B1
:20386C00B5421BDBAD1BA5420CDD0DE0BD8900984946424608F0ACF998B9B5420EDBAD1B3F
:20388C00A54201DCAAB200E02246039802800198C0683118029802F0D9FA07E04FF0070BF6
:2038AC0004E0039958464FF00A0B0880584605B0BDE8F08F08150020C4D50000C8D8000015
:2038CC002DE9F843804609F0CDF9002100B901213A4D2D1F28680028FCD0DFF8DC90012649
:2038EC0009F10407FC6A2E6009B109F0C1F93448C4F3072100F10804616009F0B3F9014651
:20390C00002001B93046014628680028FCD03F682E6009B109F0ACF9C7F38441A8F5C060B7
:20392C00A160B8F5C06F2060B4BF6FF001030223626803EB4003032093FBF0F00918104620
:20394C0002290FDB1E290BDB3F28B9BF521C401C3F22101CE2603029B4BF10391F210DE05F
:20396C00E0600BE010F13F0FACBF401E6FF03F00E06011F1100FACBF10310021216180B278
:20398C004FF47F42082330210090484604F0ECFD0096484604214FF40032112304F0E4FDD9
:2039AC00208A04214FF4F80212230090484604F0DBFDBDE8F883C04600A00C4004800C40EE
:2039CC00782200202DE9F04707467C68BE6809F0FBFA0834E16C002967D009F0F1FA316829
:2039EC00486820F0020048603168486A20F003004862656EF068B168084369680968C1F8BF
:203A0C0004053168486920F00100486130684FF00108C0F820803068B0F1804F14BF40F248
:203A2C0001104FF48070234909688847384604F0A5FEE06CD0F804A009F0C6FA1E4D8146D2
:203A4C00287850B11AF0704F02D1102006F0F2FB042006F0EFFB00202870484609F0B0FA1D
:203A6C00E16C087C042802D003200874E16CB268F068636E4546104305FA00F25868006845
:203A8C00C2623068B0F1804F14BF0C480C480E68006800258204A6EB9250401E0860384633
:203AAC002268E5649047BDE8F08709F089FABDE8F087C04678000010B83D002008050020CC
:203ACC00380400202DE9FC4191EA03084CBF4FF000484FF000084FEAC32545EA52554FEA9C
:203AEC00C2264FEA43077F0D11BF45F0004500210020BDE8FC815FF4E06E1EF1FF0E77459D
:203B0C0055D04FEAC12343EA50534FEAC0224FEA4104640D11BF43F0004300210020BDE851
:203B2C00FC81744543D0E419A3FB0501A3FB06E7A2FB06631EEB030E57F1000751F1000152
:203B4C00A2FB05631EEB060E57F1000751F10001FF1851F10001C01951F100014CBF4FF4E1
:203B6C00806E4FF4007E10EB0E0051F1000148BF641C01D4400049415FF44077FF37E41BD9
:203B8C00DEBF00210020BDE8FC8117F58067BC420DD24FEAD02040EA41504FEA41014FEAB1
:203BAC00113141EA045141EA0801BDE8FC810020FF21C900C91D090551EA0801BDE8FC817E
:203BCC0081F000412DE9FC414FEA01244FEA41052D0E04D1002C18BF0020BDE8FC8144F06E
:203BEC000044FF2D5ED04FEA9404002948BF64424FEA00224FEA40031B0E05D1002A14BFA1
:203C0C000020081CBDE8FC8142F00042FF2B4AD04FEA9202002848BF52425E1B41BF171C3E
:203C2C00221C3C1C764248BF2B1C192E47BF44FA06F73A444FF0000803E0C6F11C0704FAD4
:203C4C0007F8002A04BF0020BDE8FC8146BF524201270027A3F101035200FBD512F0800402
:203C6C000DD002F0200548EA0508803228BF5B1C02F0400458EA040808BF22F480729B1CEB
:203C8C00DCBF0020BDE8FC81FF2B0ED222F0FF024FEA42024FEA522040EAC35040EAC77058
:203CAC00BDE8FC8108464FEAD0774FEAC777FF204FEAC0503843BDE8FC8170472DE9FC4182
:203CCC00394C2078617888426CD007F03BFD6078DFF8D880810816D3217801F0020201F0B5
:203CEC00010111430FD1E26821694746891A3A684FF47A764A43B2FBF6F1B1F5FA6F02DD9A
:203D0C0008F0DCFA607800F00301032948D1237803F00301032943D041460D68E6686268D3
:203D2C00A1685840400803D22169891B164600E0891A05FB01F709F03FF94FF47A78801BB3
:203D4C00B7FBF8F16843B0FBF8F240F6B830884226DA904224DA08208DF80000694640F236
:203D6C001A30FFF7EBFA9DF80000062818D09DF80000072814D09DF80000082810D00021F9
:203D8C0040F209400A4606F0D1FC042004F058F90748B0FBF5F009F01BF9042003F05EFFC0
:203DAC0020786070BDE8FC8124230020F0DA000040420F002DE9F04F3B4D0746ADF1140DC2
:203DCC00A87895F801B0039037B1287820B90020212103F09FFD08B9002060E06878DFF8BC
:203DEC00C4800026344630F0010019D102208DF8000069460122132007F01CFD002846D0CE
:203E0C0002F0C8FA4FF47A71434641431868B1FBF0F009F0DDF8687840F002006870AE70C5
:203E2C004CF2503A4FF0320930466946012208F0AEFE60B39DF8000000090CD2D8F80000E9
:203E4C00BAFBF0F009F0C4F8641CE4B209FB04F08E28E9DB1BE001200DF10101062208F048
:203E6C0096FE06469DF801109DF803409DF802009DF804309DF8052040EA01209DF80610C8
:203E8C00388043EA0420788041EA0220B88008F013FFEA780399584600F014FD304605B0BE
:203EAC00BDE8F08FF0DA0000E42000202DE9F0470646B1680A687468D069083410624008B5
:203ECC0041D2606E40680268CD68D2F80405284206D00B68586A20F002005862C2F8045587
:203EEC00D2F804258868024256D00A68506A20F0010050628868616E49680968C1F80405D7
:203F0C00E06C00250574E76CD7F804A009F05CF8DFF88880814698F8000050B11AF0704F98
:203F2C0002D1102006F086F9042006F083F940460570484609F044F82268E56430463946E1
:203F4C009047BDE8F0870A68506920F001005061E76CF7B9506820F002005060506A20F02E
:203F6C00030050628B68C868616E496809681843B2F1804FC1F804050CBF4FF4807040F2AD
:203F8C000110074909688847304604F0F7FBBDE8F0873046FFF716FDBDE8F087B83D00204C
:203FAC007800001038482DE9FC4700680068014620208847354DDFF8D8A04FF002080F2025
:203FCC0000214FF4C072072345F82D0C41F61D5045F8290C5046CDF8008004F0C5FA2D4C82
:203FEC00012644F8046C54F8040C8008FBD3DFF8A890B9F8000045F81D6C01281FD003206F
:20400C0045F8390C0027276020688008FCD23946504660220523009104F0A6FA2660206894
:20402C008008FCD345F8216C45F8397C0820C5F8FF0FC5F8F30F45F8396C464620E000271A
:20404C00E760032045F8390C276020688008FCD2CDF80080504639466022052304F084FA8D
:20406C00266020688008FCD3202045F8210C45F8397C0824C5F8FF4FC5F8F34F45F8396C1B
:20408C00C9F80460BDE8FC87A001001039400C4000A00C4038600C407822002010B50A46B2
:2040AC00002804BF40F6FF70C0F20F0070D041F25030C5F200000068930CC0F38361C0F3A8
:2040CC008F2063D242F30724002C28D542F307225342B2F1FF3F4FEA630315DA400805D1E7
:2040EC00490806BF0121081C4FF6FF70400804F1010405D1490806BF0121081C4FF6FF707C
:20410C005B1E04F10104E9D1520808D3400805D1490806BF0121081C4FF6FF70641C002C57
:20412C0034DD022C4FEA640204F001031DDB4FF6FF7C400040F00100844507D2480040F05A
:20414C0001010F2992BF01200F216046400040F00100844507D2480040F001010F2992BFBB
:20416C0001200F216046521EE3D1002B0EDD40004FF6FF7240F00100824207D2480040F0C6
:20418C0001010F2992BF01200F21101C40EA014010BD70472DE9F043ADF1140D01F06AFDBC
:2041AC00384D4FF0030908274FF6FF7800262C4607F06AFF20BB009601A80DF106016A4671
:2041CC0006F0BAFEE0B9BDF80400102814D1208ABDF8061088420FD100980188884509D1CF
:2041EC004088C00B08D3042005F12C02014606F03DFC01E005F0A6F8009808B108F036F99B
:20420C00608A41082CD320F001002379E178608253EA010224D073B9E079237A8DF8080095
:20422C0005F13E018DF809300A680DF10A031A608988998001E08DF80890607A8DF81000F1
:20424C00A37A8DF8113002A808F0C2FC38B1236B677023B11A6812B1196838468847608AF0
:20426C00810806D320F002006082304603F030F9608AC1089CD320F00400608207F0DEF865
:20428C0096E7C046100E0020F8B508F0EBFC314C256805F00C000C2855D0E8082ED22E48FB
:2042AC000068EFF3118780F311882C4EB068002108F07EFE7169B269091A8A4238BF0021E1
:2042CC0087F3118826480068884217D22548264A264D036812682868B3FBF2F22018891A04
:2042EC0008F062FE2868201808F05AFE0120FCF7D9FC2868201808F04FFE25E0280922D222
:20430C001B48690939BF016821F00101016841F0010102460160D2F898004FF0805440F05E
:20432C000300C2F89800D4F8B8018069014620208847D4F8B8010F4C806B2168804701201C
:20434C002060206800E030BF08F092FC03F0ACFAF8BDC046701E0020ECDA00007801002093
:20436C00E4DA0000E8DA0000F0DA0000D4DA00008C2108402C2009402DE9F0430646ADF17C
:20438C001C0D08F005FE06F0A9FF4FF000090546CDF8009008F0AEFC30F0010002D000983A
:2043AC00A84202D16FF0040059E070684C4658B1B0F1FF3F05D001A906F0B4FC30B10746F3
:2043CC004CE04FF0FF3000E02046019008F0F4FD0199012701EB000800E0019368680199E3
:2043EC0008F0D2FD00282ED003A806F055FAD8B9BDF8100002A906F035FA88B9B368BDF89D
:20440C000800BDF81210059A984748B1BDF81270F781BDF80800B081059B33614F4612E0E2
:20442C000599684606F018FF0198641CB0F1FF3FD4D00028D2D008F0BFFDB8EB000302D085
:20444C0001989842C9D2009905F1080007F02AF924B1686808F094FD641EFAD1384607B0E1
:20446C00BDE8F0832DE9FE4F354D0CAF4868DFF8D49091F8008002929B460191BC886E8843
:20448C003F8800904246A9F1100107F0A1FB4FF0000A60B9BE4248DB6B6923B1596811B143
:2044AC00504688476E88F61BA64234DC12E0AE8800984246494607F08BFB68B9BE4234DB08
:2044CC006B6923B1596811B101208847AE88F61BA64220DCB4B21EE0DFF86C90EE88009845
:2044EC00424609F1100107F073FB30B9BE421CDBF61BA6420FDCB2B20EE06D890098494685
:20450C00424607F065FB98B9BD420EDBED1BA542D8BFAAB200DD2246ABF800200198C068CC
:20452C003918029801F092FC07E04FF0070A04E050464FF00A0AABF800005046BDE8FE8F96
:20454C0048160020E4D60000C8D800002DE9F0470546D5F808906C680F46ADF1280D08F086
:20456C0033FD217819B108F02BFD002057E00121217008F025FD1FB901A808F02BF901AF0B
:20458C0008A808F03DFB00268DF8246040F61A23ADF8223004208DF8200099F8010008A98A
:2045AC0002F018F81F4980460868B8F1000F35D048B9FF208A46009069460AF1040001F073
:2045CC0031FFCAF80000397C012914BF16494FF0004199F800201143144A1143009103F011
:2045EC00A1FBD8B93878607078686060387A2073F8682061387C2076C4F81C806168284663
:20460C0004F090F850B9207B012806D02169084303D0284605F01CF900B92E4630460AB0F2
:20462C00BDE8F0874C23002000004080000880A1F8B5064635481838B5680068746841680A
:20464C00286888472A6801210834C2F81C1868B12378FF2B0AD0FF214009217051D2042018
:20466C00C2F80408022008F0F4FB4AE02078002847D0401E13D0401E02D0FD3844D03DE087
:20468C00D2F80828A06E0270A06E401CA066E76E7F1EE76619D0012F88BF092127E0676E7F
:2046AC007F1E676613D1E76E7FB10220E16D20702A68097C012F4FEA410141F00101C2F86C
:2046CC00001894BF03210B2113E004210DE0206E2A680078C2F80808206E022F00F10100FB
:2046EC00206604D2E76E17B90521002020702A680220C2F8041808F0ACFBF8BDFF202070CA
:20470C00F8BD304604F09AF9F8BDC046C40100102DE9F04104466668A5680F46ADF1480D97
:20472C0008F052FC96F898102D1D012903D108F047FC002050E04FF0010886F8988008F048
:20474C003FFC1FB90DA808F059F90DAFF968204603F024FE0028ECD13878307078687060BE
:20476C00387A002130220823F06001A808F038FC0694002700971A4A296806F1100001ABB8
:20478C0008F02AFC01A824220823394608F030FC8DF81C8006F12C00414601AA08F024FCA4
:2047AC00307838B906F14800394601AA08F01CFC0C487060B7673772F767287900F05AF9AE
:2047CC00204604F04FFB084A009706F184000421234606F04FFB204612B0BDE8F081C046B3
:2047EC003D460000FDCD0000A9CA00002DE9FE4F8B4631490CAF89464E889BF80080DBF8F9
:20480C000400BC882D4901929A4642463F880090103907F0DDF9002570B9BE4243DBD9F829
:20482C000C302BB1596819B128468847B9F80260F61BA6422DDC0DE02149B9F80460009873
:20484C004246103107F0C4F930B9BE422BDBF61BA6421EDCB4B21CE0B9F80660009817497C
:20486C00424607F0B5F928B9BE421CDBF61BA6420DDD0EE0B9F80A6011490098424607F0CA
:20488C00A7F990B9BE420EDBF61BA64201DCB2B200E02246AAF80020DBF80C00391801982D
:2048AC0001F0D4FA04E0072502E0AAF800500A252846BDE8FE8FC046601800207CD600008A
:2048CC00C8D800002DE9FC47334D0646002491460F4628788DF80040002859D12046212158
:2048EC0003F018F8002853D0B9F1040F19BF09F00308A2464FF0010AA046132069460122A8
:20490C0008F045F9002841D09DF8000007F0070706F003066946012200F0E00040EA870030
:20492C0030438DF80000132006F084FF70B3AF706E700D206946012208F029F930B39DF816
:20494C00000008F00301012200F0FC0001438DF800100D20694606F06DFFB8B115206946DC
:20496C00012208F014F988B19DF800000AF00101012200F0FE0001438DF80010152069466B
:20498C0006F058FF10B185F80390012408F094F92046BDE8FC87C046E42000202DE9FE4F28
:2049AC008B4631490CAF89464E889BF80080DBF80400BC882D4901929A4642463F8800904A
:2049CC00103907F005F9002570B9BE4243DBD9F80C302BB1596819B128468847B9F802605D
:2049EC00F61BA6422DDC0DE02149B9F8046000984246103107F0ECF830B9BE422BDBF61B01
:204A0C00A6421EDCB4B21CE0B9F8066000981749424607F0DDF828B9BE421CDBF61BA64212
:204A2C000DDD0EE0B9F80A6011490098424607F0CFF890B9BE420EDBF61BA64201DCB2B2D3
:204A4C0000E02246AAF80020DBF80C003918019801F0FCF904E0072502E0AAF800500A257E
:204A6C002846BDE8FE8FC046601900204CD70000C8D800002DE9F04105462E480068EFF3D6
:204A8C00118880F311882C4A505D411C0028515549D12A4CA900675C07F03F003F280C442E
:204AAC0001D0FFF7E7FF607800F03F003F2801D0FFF7E0FF668837F07F0019D1F80911D2C7
:204ACC004FF08054D4F8B801406901463046884704F5DC742068406B0146304688470128CC
:204AEC00F8D120E0164850F82610012088471AE04FF08054D4F8B801C069014630468847CE
:204B0C00D4F8B801406A014630468847D4F8B801C06A01463046884701210A4A0A4811605A
:204B2C0001688908FCD388F31188284606F096FEBDE8F081ECDA0000541C0020FCD4000058
:204B4C006C1C002028200860282008402DE9FE4F0CAF486891F8008001919B460292BC883F
:204B6C003E882C4F2C493D8800904246103907F02FF84FF0000A60B9B54240DBFB6823B184
:204B8C00596811B1504688473D88AD1BA5422CDC0EE0DFF888907D880098424609F1100198
:204BAC0007F016F830B9B54229DBAD1BA5421CDCACB21AE0BD8800981749424607F008F845
:204BCC0028B9B5421BDBAD1BA5420CDD0DE03D8900984946424606F0FBFF98B9B5420EDBE0
:204BEC00AD1BA54201DCAAB200E02246ABF800200198C0683118029801F028F907E04FF0DA
:204C0C00070A04E050464FF00A0AABF800005046BDE8FE8F641A0020B0D60000C8D800007B
:204C2C002DE9F843324C07460025994690460E46A41E20788DF80050002856D128461E21F3
:204C4C0002F068FE002850D0284607B101206946012207462A2007F09AFF002843D09DF898
:204C6C00000007F0010106F0070600F0C6000122014341EAC6012A208DF80010694606F099
:204C8C00D9FD80B3A6705B2069460122677007F07EFF40B39DF8000008F00301012200F0BA
:204CAC00FC0001438DF800105B20694606F0C2FDC8B184F803800E206946012207F067FF5F
:204CCC0088B19DF8000009F00301012200F0FC0001438DF800100E20694606F0ABFD10B1D9
:204CEC0084F80490012507F0E7FF2846BDE8F8836A2300202DE9F843061C894619D0B9F185
:204D0C00000F16D02F4C207898B1A07800252F46032802D1A08802280BDB607820B901207C
:204D2C0002F04EF828B101270120292102F0F2FD10B90020BDE8F8832148A3780068032BBF
:204D4C0080461ED1E0786946012240F00B008DF80000812006F06EFD48B3A1884FF47A7055
:204D6C004843B0FBF8F008F033F9A178E078012208438DF800006946812006F05BFD48B9E2
:204D8C0015E006F01BFD4FF47A714843B0FBF8F008F01EF9AC203146022207F0F8FE30B174
:204DAC00AE204946022207F0F2FE00B1012507F083FF17B1002002F003F82846BDE8F883CC
:204DCC00F0DA0000782300202D492DE9F0410968EFF3118881F311882A4B195C4A1E012910
:204DEC001A5449D12849800045180E5C6F8836F07F0019D1F00911D24FF08054D4F8B8016D
:204E0C00806901463846884704F5DC742068406B0146384688470228F8D120E01D4850F859
:204E2C002710002088471AE04FF08054D4F8B801006A014638468847D4F8B801806A0146FA
:204E4C0038468847D4F8B801006B01463846884701210E4A0E48116001688908FCD306F075
:204E6C003F003F2801D0FFF7AFFF687800F03F003F2801D0FFF7A8FF88F31188BDE8F081FD
:204E8C00ECDA0000541C0020FCD4000028200860282008406C1C00209446304A38B500288F
:204EAC004FF0000448D0401E3ED0401E26D0401E1BD0401E0DD061384CD1022948DC022917
:204ECC0046DB6146098802F1100001800225558241E005293CDB61460B6802F120000360F5
:204EEC00097901710525D58135E0022930DA61460978501C0170012595812CE0022927DC6D
:204F0C00022925DB6046008802F10801002B08804FF0020353811ED011480090D06915231D
:204F2C00283201F0C5F816E0022911DA6046007810700125D5800EE0022909DC022907DB2D
:204F4C00614609881346981C018002259D8002E0182400E00224204638BDC04684130020FF
:204F6C00913500002DE9F0478146D9F808000E4600F10408D9F804507068002410B9F068DF
:204F8C0000284ED0287801280FD108F01DF8A96F39B1E96F8E61EE6708F012F80120BDE8A3
:204FAC00F087AE67EE6708F00BF808F00DF81E4F82463878012804D0042005F0C5FA012031
:204FCC003870504607F0FCFF05F12C004FF0FF31824607F0D9FFD8F8000007F0CDFF48464C
:204FEC00314602F089FBD8F8000007F0C1FF287898B905F148004FF0FF3107F0C5FF07F0E1
:20500C00E3FF0646387818B1042005F013F93C70304607F0D5FF287A00B90124504607F0BE
:20502C00AFFF2046BDE8F087B53D0020F8B58C4645688468DCF8007095F85810B8B288409F
:20504C001FFA80FE2068B0F1804F14BF234B244BDCF80820234832B995F858108E00815956
:20506C0005F1720207E095F858108E00811951F8081C7244521E99605A6021683A0143F673
:20508C00F077103A0831174019609A683A439A602368B3F1804F14BF134A144ADCF804C0AD
:2050AC00BCF1000F04BF8059A61D05D0801950F8100C0EEB0C06761E906016605160906849
:2050CC0007439760A168EE6EE0680843716809688862586A40F003005862F8BD00050020CE
:2050EC0030040020DCD4000010050020400400202DE9F8430C46064620687568B76800286C
:20510C0050D007F061FF696D21B107F059FF0320207447E04FF0010884F810806C6507F01B
:20512C004FFF95F8700030B195F859201F49A86E114306F02BF93968486840F0020048601A
:20514C0030462146FFF772FF3968486940F001004861676807F038FF154C814620780128ED
:20516C000AD017F0704F02D1102005F0EDF9042005F0EAF984F80080484607F021FF287868
:20518C0030B9696805F13804204607F0FDFE10B14046BDE8F8833046FEF714FC2046002156
:2051AC0007F0F2FE0020BDE8F883C04600000680B83D002038B59646DFF8ACC0294A002874
:2051CC004FF0000433D0401E20D0801E15D061380BD0401E43D102293FDB7146098802F146
:2051EC000E000180022515823AE0022935DA7046007810700125558132E002292DDA71465D
:20520C000978501C01700125958129E0022924DB71460988002B02F106004FF00203018084
:20522C00054613811CD0CDF800C0D0690FE0022913DB70460088002B02F102014FF002032E
:20524C0008800D4693800BD0CDF800C0906920322946122300F02CFF02E0182400E00224C6
:20526C00204638BD04150020C53700003EB5054600210622684601F01DFF297B284C0846EA
:20528C00801E1ED062380AD0401E30D021F00F00102835D101F00F01601C017030E0687B65
:2052AC002070687B30B9002006216A46034600F049FF2078002100B10121084605F0C4FE7D
:2052CC001EE0687B78B101280BD0022807D0032803D0042808BF042006E0032004E002208F
:2052EC0002E0012000E0002007F068FB08E0A97B687BE31C00EB0120410001EBC0011980C4
:20530C00641E207830B1607820B1A178E07811B1A18801E0E078002102F022FF3EBDC04613
:20532C00AD220020F8B50D46EEB2290824BF26494D40264BB400195985EA01020240C2F3C2
:20534C00006C234A00EA05078143FF323A4000F4E0270A43B7F5E02F01D1510E15D300F4F3
:20536C00E0215CEA010710D002F4E027B7F5A02707D0B7F5803704BF22F4003242F4A02245
:20538C0003E022F4803242F4C0221A51114CC10D04D3A4F18001C5F380528A55000E11D360
:2053AC0007F012FE290E03D201210022B14002E00121B1400A46503423688B431A43226098
:2053CC0007F0FEFDF8BDC046006000A000100840007F077F802002402DE9FE4F0D46814658
:2053EC000CAF287A3C8898469346800928BF082048D2084602A906F037F8012808BF0120E8
:20540C0040D0BDF80800DFF880A042F602110026FF27401A22D04AF2C031401A0BD0401E19
:20542C001AD1BCB9B8F1010F12D19BF80000E968022708701EE06CB9B8F1080F08D1594684
:20544C000A6850460E30496802600127416011E00D260DE00B260BE00A2609E00094012023
:20546C00434629465A460190484603F0BBFA0646FF2F06D05046006818B1016809B1384609
:20548C0088473046BDE8FE8F8C1B002041F21C3010B5C5F200000468B4F1FF3F08BF00248D
:2054AC0007F0DEF940F2844346F25C01002242F2082E012040F2801CC4F26023C4F20C010D
:2054CC001A60C4F2043E0860C4F2283CCEF80000DCF8000038B140F20010C4F22030006899
:2054EC002046FBF77DF844F20402C4F203021068052142F24803C2F20001C4F2030320F03E
:20550C0003000143116019684FF0000EC0F2391E6FF35B414EEA01000421C4F2090118605C
:20552C000868C0F30130012809D10A684FF6FF70CFF6FC40104040F400320A60086010BD8C
:20554C0038B5054600210222684601F0B3FD297B274C0846801E19D062380BD0401E2DD0B7
:20556C0021F00F00102833D1204601F00F01401C01702DE0697B20460170687B40BB0020C9
:20558C0002216A46034601F091FA21E0687B012812D00A280BD0282806D0410001EBC00157
:2055AC0041F4404188B204E04FF4004001E04FF4804004F01BFC0BE00020FAE7A97B687BA6
:2055CC00234600EB0120410001EBC001D81C01802046441E207830B1607820B1A178E0788C
:2055EC0011B1A18801E0E078002102F0B9FD38BDF52200202DE9F0410E46294990461C4641
:20560C0006AF8C4672680878BB8851783F881278002502EB012242F62321521A29D0521EBA
:20562C00052A18D9921F0CD0263A34D1072F30D8C7F10700984298BF83B2674407F108013D
:20564C0021E0B84225DBC01B9842D8BF83B22380DCF804000BE0F06807F020F980B2B842C8
:20566C0017DBC01B9842D8BF83B22380F06839180AE0082F0DD8C7F10800984298BF83B233
:20568C0007EB0C010F31238040461A4600F0DEFB03E0072501E025800A252846BDE8F08125
:2056AC00A811002029482DE9F84FD0F80090EFF3118589F31188264CA068012107F078FC4B
:2056CC004FF0010A4FF00008064621686769A4F81CA02068A4F81E80791A321A8A42A6EB32
:2056EC0007062DD385F311884546EF195046394607F03AFC761B0546B542F6D9EFF3118B8B
:20570C0089F31188E08B012804D14046394607F02BFC0546B5F1FF3F06D0A169AD1BA9421A
:20572C0038BF0D1CE91901E0A5697919284607F017FCA4F820A0A4F81C805D46276001E0A3
:20574C00A4F81C8085F31188BDE8F88FECDA0000780100207CB58E461146DFF89CC0254A6B
:20576C00002458B3401E18D063380ED0401E3DD1BEF1020F38DCBEF1020F35DB098802F19B
:20578C00080001800226568131E0BEF1020F2BDA087810700126D68029E0BEF1030F23DB5A
:2057AC000E88897802F10F0006800546817003269680E3B1CDF800C0D0690FE0BEF1030F41
:2057CC0012DB0E88897802F10C00068005468170032656805BB1CDF800C09069203229462E
:2057EC000F2300F065FC02E0182400E0022420467CBDC04648160020714400002DE9FE4FBB
:20580C00DFF898908B460CAF25499BF80080DBF80400BC88B9F8006001929A4620394246F0
:20582C003F88009006F0D4F9002530B9BE422CDBF61BA642D8BFB4B21DE01949B9F80460C3
:20584C0000984246103906F0C3F928B9BE421CDBF61BA6420DDD0EE0B9F80860009810496E
:20586C00424606F0B5F990B9BE420EDBF61BA64201DCB2B200E02246AAF80020DBF80C009B
:20588C003918019800F0E2FA04E0072502E0AAF800500A252846BDE8FE8FC046161D00203A
:2058AC0008D600003EB5054600210622684601F001FC297B244C0846801E1FD062380AD078
:2058CC00401E29D021F00F0010282ED101F00F01A01C017029E0687B2070697B31B9002076
:2058EC0006216A46034600F099FB217862780020114318BF012005F0B5F916E0687B38B1B4
:20590C00012803D0022808BF022002E0012000E0002006F0D3FE08E0A97B687BE31D00EBC8
:20592C000120410001EBC0011980641E207830B1607820B1E178607911B1218901E06079B7
:20594C00002102F00DFC3EBD69210020F8B5264C2068EFF3118680F3118824491D4D0B6804
:20596C000420B0FA80F043F00403281A1F3002780B60521C027086F311882068EFF311833D
:20598C0080F311880A680820B0FA80F042F008022D1AE87F0A60401CE87783F311880E20EF
:2059AC00FFF768F80C480068C0F38150032814BF0020012009490A4A088017683FB9094C0C
:2059CC00402020600123D36100204860F8BD0120F8BDC046671C0020B43F0050782200208A
:2059EC0004800C402C500C40ECDA0000701E0020BCB5054600210222684601F05BFB2F7BEF
:205A0C00234C3846C01E31D0613811D0401E24D027F00F0010282CD1002017F0030F18BF77
:205A2C00012017F00C0F18BF40F00200A07021E0687B6070697B490806D2002002216A464A
:205A4C000346FFF7B7FB6078800812D2012002216A460023FFF7AEFB0BE0A97B687B00EB72
:205A6C000120410001EBC001A18002E0687B02F027F8A07827782FB16178E278084202D02E
:205A8C00A18801E0E2780021104602F069FBBCBDC42200202DE9FC470220ADF8000007F033
:205AAC008BFA214CDFF88490032700258246A04609F10806241F14F8010F69460DF10202E8
:205ACC0003F0A8FB9DF80200800813D318F8050036F81010491E8BB226F8103053B901F0BD
:205AEC00BBFF9DF8031018F80530480000EBC10026F813007F1E05F10105DCD107F05CFA3B
:205B0C000B4999F8002009684FF47A77A0EB0A004143B1FBF7F0C0F10A0081B2104602F0ED
:205B2C001FFBBDE8FC87C046B5DA0000DC220020F0DA0000F8B507F095F80021002808BF59
:205B4C00012148F20005C4F20C05286810B928680028FAD04BF22806792048F211070124BB
:205B6C00C4F20C06B070C4F20C0747F8114C09B107F07EF807F076F80021002808BF211CF3
:205B8C00286810B928680028FAD0747047F8114C09B107F06DF807F065F80021002808BF24
:205BAC00211C286810B928680028FAD0FB20307047F8114C09B107F05BF846F230010020DD
:205BCC0049F2100EC4F20C010860C4F20C0ECEF80000F8BDF0B520480127F84201D003F0B7
:205BEC00D7FB204D204F214EBD4206D203CD0478A4003459401CA047F6E71D48002800D0AB
:205C0C008047164D164FBD4202D210CDA047FAE7F0BD03251BE0416808300A1C2A400BD154
:205C2C001A1C2A40AB4305D0046804300C600431043BF9D1131C05D0047801300C7001314C
:205C4C00013BF9D1021C2A4001D0A84304300368002BE0D17047C046FFFFFFFF00000000BA
:205C6C0000000000A8EA000030EB000028EA000059C501102DE9F84305F03CFD234D002417
:205C8C006C704FF6FF70E88204F00AFC204E012322462870314605F1A80003F031FC022318
:205CAC00224605F1CC00314603F02AFC0423224605F1F000314603F023FC042705F14A08AD
:205CCC00102240462146AF7001F0F4F905F15A0910224846214601F0EDF905F12C06346089
:205CEC00EC7107202C72102168724246AC72022004F0A2FE032010214A4604F09DFE38461E
:205D0C003246014604F098FEBDE8F883100E0020F1C400002DE9F843204EDFF8848000255C
:205D2C0006F14404F0886900084100F0030003280BD1AF00E05907F031F8E05907F01AF8AA
:205D4C00F06818F8051001F0EDFF6D1C082DE9DBF068A8F101040827DFF84890DFF84C80E4
:205D6C00114914F8012F0B2A05D049EA020205F0F7FA002205E0227848EA020205F0F0FAA4
:205D8C000122F5682178284604F008FE7F1E2846E6D100F0F7F8BDE8F883C0464C1F002024
:205DAC00FAD6000000008080007FC7670000C080F8B50D46234C24490828164641D8DFE8D2
:205DCC0000F0243533312F2D2A0F05C0072D38D1B0880834A080B779A77130682060F8BDCA
:205DEC00284605F087FF071C2BD0616804F11700884202D0606806F0E5FA384631462A461D
:205E0C0000F024F867602570F8BD082D19D170680F346060E1E70C46153408E00C4606E0DC
:205E2C00643404E04F3402E03A3400E0253420460021152201F03EF9204631462A4600F0AB
:205E4C0005F8F8BDA811002021120020002A4AD05FEA000C8B071CD1830722D1102A08D3AE
:205E6C0070B4103A78C978C0103AFBD270BC103238D0042A2CD3082A05D30C2A24BF08C981
:205E8C0008C008C908C008C908C092072AD0920F22E00B780370491C401C521E22D08B071B
:205EAC00F7D1C30714D18307D8D0121F12D308C903801B0C4380001D121FF8D20AE008C906
:205ECC0003701B0A43701B0A83701B0AC370001D121FF4D2121D05D00B780370491C401C2C
:205EEC00521EF9D160467047BCB5054600210322684601F0DFF8224C287BB0F1640711D089
:205F0C007F1E26D020F00F0110292AD1002110F0030F18BF012110F00C0F18BF41F002013C
:205F2C00A1701FE0687B6070687B810806D2012003216A460023FFF70DFC6078400805D240
:205F4C00002003216A460346FFF704FC01F040FC07E0A87B697B01EB0021480000EBC100E6
:205F6C00A080A17827782FB16278E078114202D0A18801E0E078002102F0F2F8BCBDC04628
:205F8C00942200207FB5002105220DF1020001F091F8214C00208021ADF80000183C217071
:205FAC0006466670A6704FF47A75E670A21D25810221108006F03EFF01202246014606F004
:205FCC0039FF02200DF10202014606F033FF032001210DF1020206F02DFF042005210DF139
:205FEC00020206F027FF20890A216A46B0FBF1F00221ADF80000652006F01CFF012084F86A
:20600C002C0084F8340084F83C6025636FF00040A06300907FBDC046641F0020BCB51F460B
:20602C00214B8C460146002019B3891E18D062390ED0491E35D1BCF1020F30DCBCF1020FE6
:20604C002DDB128803F108010A8002275F81BCBDBCF1020F23DA1178197001279F80BCBDFC
:20606C00BCF1020F1BDA1278591C0A700127DF80BCBDBCF1060F12DB156803F11401928899
:20608C000D608A8006255D8067B108480090186903F11C073A460E2300F00AF8BCBD182091
:2060AC00BCBD0220BCBDC04660180020F94700002DE9FE4F8046B8F1000F01920C98029137
:2060CC009B46009005D0081C03D0101C01D0009810B90220BDE8FE8F1948017800252C4654
:2060EC0029E0A00038F800A04FF6FF7708EB000657451CD0B778D7B10198029A594606F05E
:20610C00F3FB5FEA000912D0780806D3009B504601214A4601F034FC0543B078800806D323
:20612C003088009B02214A4601F02AFC054304480178641CE4B2A142D3DC2846BDE8FE8FE1
:20614C00100E00208C461146214A38B5002418B3801E18D062380ED0401E35D1BCF1020F65
:20616C0030DCBCF1020F2DDB098802F1080001800225558129E0BCF1020F23DA0878107073
:20618C000125958021E0BCF1020F1BDA0978501C01700125D58018E0BCF1060F12DB0D680F
:2061AC00898802F11400056084468180062555805BB108480090106961460E231C32FFF70A
:2061CC0077FF02E0182400E00224204638BDC04660190020A949000070B5054605F0AAF826
:2061EC0043F68454C2F200046668034604F000FF22699B1B4FF47A715943090C801A48BFFF
:20620C00404240F6B83249198A4216D3062814DAA268E068824210D8216871B1801A44F224
:20622C004022C0F20F024243900C00EB1240814212D90846C82811D312E043F6AC71C5F200
:20624C0000014868400828BF4FF4FA600DD209687D2001F0FF014843C82801D2C82070BD74
:20626C00B0F57A6F88BF4FF47A6070BDF8B50025401E214CADF800501BD0401E3AD1641C8D
:20628C002078062836DA00F019FDADF800006A462B4602200146FEF7FFFD607850B3207883
:2062AC000622401CC0B290FBF2F15143401A2070F8BD124F25702E46E0887100084110F0AF
:2062CC00030F07D000F0030001280AD1B85D06F06DFA02E0B85D06F073FA2178B040084332
:2062EC002070761C082EE7DB012022462B460146FEF7D2FDF8BDC0464C1F0020FAD600005D
:20630C00FCB590EA01064CBF4FF000460026020243001B0E12BF42F000420020FCBDFF2BD1
:20632C0032D05FEA01245FEA41055FEA156512BF44F000440020FCBDFF2D25D05B1B0020B6
:20634C00202764085208A24240EB000028BF121B7F1E04D0002A18BF5200F4D1B84010F080
:20636C00004F04BF4000B3F1010380302CBF5B1C40007F33DCBF0020FCBDFF2B04D2400A55
:20638C0040EAC3503043FCBDFF27FF0556EA0700FCBDFEE7224910B50878002808BF3C247A
:2063AC0003D001280CBF052400244878C0B1012814D0022810D003280CD0042808D005283D
:2063CC0004D0062814BF07280C480AE00C4808E00C4806E00C4804E00C4802E00C4800E057
:2063EC000C4804F079F802460B460BA003C8FCF773FE03F0B5FA0019401C10BD00004841F8
:20640C000000C841000048420000C842000048430000C843000048440000000000408F40A2
:20642C00E52000202DE9F843204D884606464FF0FF3105F12400814606F0A6FD002000E06A
:20644C00401CB8F1000F0DD018F82010FF2909D02A688A4204D905EB8101096E0029EFD0F2
:20646C0000261CE00024346074600127B4600EE005EB80000B787268066607FA03F01043B8
:20648C0070600A680A49304604F06AFF641CB8F1000F04D008EB84010878FF28E8D1484616
:2064AC0006F06EFD3046BDE8F883C046D03A0020007FC76722482DE9FE4F028880465FFA86
:2064CC0092F1100100F47042801A1FFA80FBB8F80200C5B241185FFA81FA0021AA45019150
:2064EC0024DBAAEB0506761CA8420CBF04240024AA45D8BFA34513DD284621466A4606F085
:20650C0034FC0427E94619F8011B019804F06AFC7F1E0190F7D1241DA4B2B4F5805FE7DBEE
:20652C00B8F802006D1C761EEDB2DDD10198002104F058FC002104F055FCBDE8FE8FC04693
:20654C00CC1D0020F8B5017B39B1491E03D0491E3CD1022502E0012500E00025417B1C4C0D
:20656C008A080ED2480803D2284601F077FB02E0284601F065FD04EB4500002606813046AD
:20658C0014E0817B6F004800E61900EBC10081B20020318101B10120061C08D1284601F06B
:2065AC005DFBE1190989002001B1012006460027394600910098BF19401CFFB2022800903E
:2065CC00F8D907B10A21207801F0CAFDF8BDC046DC220020F8B50F46810001EBC0001E493C
:2065EC000E180D587468A41D0FB91C4FBF1F387830B97888312818BF322814D1307A90B95B
:20660C0006F0E2FC8446387830B96978AA7800230A4318BF012302E0317A69184B7823B124
:20662C00604606F0CDFC0020F8BD18B901206870A87003E0307A012128184170604606F0F6
:20664C00BFFC387828702078FEF714FA3046394604F0BAF83046F8BDE8D3000062D80000D5
:20666C0038B5042005F04AF91A4C022818BF03281FD103200090164800214FF040521C2301
:20668C0001F072FF17480068EFF3118380F3118815480421B1FA81F1401AC17F4A1E012978
:2066AC00C27703D1206820F00400206083F3118838BD094D0A48094A296803686018B2FB85
:2066CC00F3F106F071FC2868201806F069FC38BD00A00C40701E0020D8DA0000A0860100DC
:2066EC00F0DA0000ECDA0000671C002010B51A481A490078086820F0030040F0010008603D
:20670C0003F0F4FA04F0FFF90021154C154821600068C0680146022088471349134A08684F
:20672C0020F0010008601068D4F8EC1FEFF3118480F311880E4B0F481A680421B1FA81F18E
:20674C00401A42F00402C17F1A60491CC17784F311884FF0FF3010BDB43D00200440034061
:20676C0040100940A00100108C210840ECDA0000701E0020671C0020F8B506F073FA002186
:20678C00002808BF012148F20004C4F20C04206810B920680028FAD04BF21807012548F251
:2067AC001106C4F20C07C7F80250C4F20C0646F8115C09B106F05CFA46F23001C4F20C0137
:2067CC000D600868800802D208688008F9D349F2100140F60110C4F20C01086006F042FAC0
